{
  "_format": "hh-sol-artifact-1",
  "contractName": "X402Payment",
  "sourceName": "contracts/X402Payment.sol",
  "abi": [
    {
      "inputs": [
        {
          "internalType": "address",
          "name": "_feeRecipient",
          "type": "address"
        }
      ],
      "stateMutability": "nonpayable",
      "type": "constructor"
    },
    {
      "anonymous": false,
      "inputs": [
        {
          "indexed": true,
          "internalType": "bytes32",
          "name": "paymentId",
          "type": "bytes32"
        },
        {
          "indexed": true,
          "internalType": "address",
          "name": "payer",
          "type": "address"
        },
        {
          "indexed": false,
          "internalType": "uint256",
          "name": "timestamp",
          "type": "uint256"
        }
      ],
      "name": "PaymentCompleted",
      "type": "event"
    },
    {
      "anonymous": false,
      "inputs": [
        {
          "indexed": true,
          "internalType": "bytes32",
          "name": "paymentId",
          "type": "bytes32"
        },
        {
          "indexed": true,
          "internalType": "address",
          "name": "payer",
          "type": "address"
        },
        {
          "indexed": true,
          "internalType": "address",
          "name": "recipient",
          "type": "address"
        },
        {
          "indexed": false,
          "internalType": "uint256",
          "name": "amount",
          "type": "uint256"
        },
        {
          "indexed": false,
          "internalType": "string",
          "name": "serviceType",
          "type": "string"
        }
      ],
      "name": "PaymentCreated",
      "type": "event"
    },
    {
      "inputs": [
        {
          "internalType": "bytes32",
          "name": "paymentId",
          "type": "bytes32"
        }
      ],
      "name": "completePayment",
      "outputs": [],
      "stateMutability": "nonpayable",
      "type": "function"
    },
    {
      "inputs": [
        {
          "internalType": "string",
          "name": "serviceType",
          "type": "string"
        },
        {
          "internalType": "address",
          "name": "recipient",
          "type": "address"
        }
      ],
      "name": "createPayment",
      "outputs": [
        {
          "internalType": "bytes32",
          "name": "",
          "type": "bytes32"
        }
      ],
      "stateMutability": "payable",
      "type": "function"
    },
    {
      "inputs": [
        {
          "internalType": "address",
          "name": "",
          "type": "address"
        }
      ],
      "name": "creatorEarnings",
      "outputs": [
        {
          "internalType": "uint256",
          "name": "",
          "type": "uint256"
        }
      ],
      "stateMutability": "view",
      "type": "function"
    },
    {
      "inputs": [],
      "name": "feeRecipient",
      "outputs": [
        {
          "internalType": "address",
          "name": "",
          "type": "address"
        }
      ],
      "stateMutability": "view",
      "type": "function"
    },
    {
      "inputs": [
        {
          "internalType": "bytes32",
          "name": "paymentId",
          "type": "bytes32"
        }
      ],
      "name": "getPayment",
      "outputs": [
        {
          "internalType": "address",
          "name": "payer",
          "type": "address"
        },
        {
          "internalType": "address",
          "name": "recipient",
          "type": "address"
        },
        {
          "internalType": "uint256",
          "name": "amount",
          "type": "uint256"
        },
        {
          "internalType": "string",
          "name": "serviceType",
          "type": "string"
        },
        {
          "internalType": "uint256",
          "name": "createdAt",
          "type": "uint256"
        },
        {
          "internalType": "bool",
          "name": "completed",
          "type": "bool"
        }
      ],
      "stateMutability": "view",
      "type": "function"
    },
    {
      "inputs": [],
      "name": "owner",
      "outputs": [
        {
          "internalType": "address",
          "name": "",
          "type": "address"
        }
      ],
      "stateMutability": "view",
      "type": "function"
    },
    {
      "inputs": [
        {
          "internalType": "bytes32",
          "name": "",
          "type": "bytes32"
        }
      ],
      "name": "payments",
      "outputs": [
        {
          "internalType": "address",
          "name": "payer",
          "type": "address"
        },
        {
          "internalType": "address",
          "name": "recipient",
          "type": "address"
        },
        {
          "internalType": "uint256",
          "name": "amount",
          "type": "uint256"
        },
        {
          "internalType": "string",
          "name": "serviceType",
          "type": "string"
        },
        {
          "internalType": "uint256",
          "name": "createdAt",
          "type": "uint256"
        },
        {
          "internalType": "bool",
          "name": "completed",
          "type": "bool"
        }
      ],
      "stateMutability": "view",
      "type": "function"
    },
    {
      "inputs": [],
      "name": "platformFeePercent",
      "outputs": [
        {
          "internalType": "uint256",
          "name": "",
          "type": "uint256"
        }
      ],
      "stateMutability": "view",
      "type": "function"
    },
    {
      "inputs": [
        {
          "internalType": "string",
          "name": "",
          "type": "string"
        }
      ],
      "name": "pricing",
      "outputs": [
        {
          "internalType": "uint256",
          "name": "",
          "type": "uint256"
        }
      ],
      "stateMutability": "view",
      "type": "function"
    },
    {
      "inputs": [
        {
          "internalType": "bytes32",
          "name": "paymentId",
          "type": "bytes32"
        }
      ],
      "name": "refund",
      "outputs": [],
      "stateMutability": "nonpayable",
      "type": "function"
    },
    {
      "inputs": [
        {
          "internalType": "string",
          "name": "serviceType",
          "type": "string"
        },
        {
          "internalType": "uint256",
          "name": "newPrice",
          "type": "uint256"
        }
      ],
      "name": "updatePricing",
      "outputs": [],
      "stateMutability": "nonpayable",
      "type": "function"
    },
    {
      "inputs": [],
      "name": "withdrawContractBalance",
      "outputs": [],
      "stateMutability": "nonpayable",
      "type": "function"
    },
    {
      "inputs": [],
      "name": "withdrawEarnings",
      "outputs": [],
      "stateMutability": "nonpayable",
      "type": "function"
    },
    {
      "stateMutability": "payable",
      "type": "receive"
    }
  ],
  "bytecode": "0x608060405260026004553480156200001657600080fd5b50604051620029e3380380620029e383398181016040528101906200003c9190620001c9565b33600260006101000a81548173ffffffffffffffffffffffffffffffffffffffff021916908373ffffffffffffffffffffffffffffffffffffffff16021790555080600360006101000a81548173ffffffffffffffffffffffffffffffffffffffff021916908373ffffffffffffffffffffffffffffffffffffffff1602179055506207a1206005604051620000d29062000256565b908152602001604051809103902081905550624c4b406005604051620000f890620002bd565b9081526020016040518091039020819055506302faf08060056040516200011f9062000324565b9081526020016040518091039020819055506305f5e100600560405162000146906200038b565b90815260200160405180910390208190555050620003a2565b600080fd5b600073ffffffffffffffffffffffffffffffffffffffff82169050919050565b6000620001918262000164565b9050919050565b620001a38162000184565b8114620001af57600080fd5b50565b600081519050620001c38162000198565b92915050565b600060208284031215620001e257620001e16200015f565b5b6000620001f284828501620001b2565b91505092915050565b600081905092915050565b7f73696e676c65436f6e73756c746174696f6e0000000000000000000000000000600082015250565b60006200023e601283620001fb565b91506200024b8262000206565b601282019050919050565b600062000263826200022f565b9150819050919050565b7f6461795061737300000000000000000000000000000000000000000000000000600082015250565b6000620002a5600783620001fb565b9150620002b2826200026d565b600782019050919050565b6000620002ca8262000296565b9150819050919050565b7f6d6f6e74686c79537562736372697074696f6e00000000000000000000000000600082015250565b60006200030c601383620001fb565b91506200031982620002d4565b601382019050919050565b60006200033182620002fd565b9150819050919050565b7f6170694163636573730000000000000000000000000000000000000000000000600082015250565b600062000373600983620001fb565b915062000380826200033b565b600982019050919050565b6000620003988262000364565b9150819050919050565b61263180620003b26000396000f3fe6080604052600436106100c65760003560e01c80638da5cb5b1161007f578063bfab3db911610059578063bfab3db914610264578063e66eefc81461027b578063f8164e59146102bd578063fa3c30a8146102ed576100cd565b80638da5cb5b146101f9578063b708634914610224578063b73c6ce91461024d576100cd565b80630716326d146100d2578063469048401461011457806347ca8a8b1461013f5780637249fbb61461016857806377a46f37146101915780638c639a85146101ce576100cd565b366100cd57005b600080fd5b3480156100de57600080fd5b506100f960048036038101906100f4919061152b565b61032a565b60405161010b9695949392919061165d565b60405180910390f35b34801561012057600080fd5b5061012961043b565b60405161013691906116c5565b60405180910390f35b34801561014b57600080fd5b506101666004803603810190610161919061152b565b610461565b005b34801561017457600080fd5b5061018f600480360381019061018a919061152b565b6108f8565b005b34801561019d57600080fd5b506101b860048036038101906101b39190611815565b610c65565b6040516101c5919061185e565b60405180910390f35b3480156101da57600080fd5b506101e3610c93565b6040516101f0919061185e565b60405180910390f35b34801561020557600080fd5b5061020e610c99565b60405161021b91906116c5565b60405180910390f35b34801561023057600080fd5b5061024b60048036038101906102469190611905565b610cbf565b005b34801561025957600080fd5b50610262610d79565b005b34801561027057600080fd5b50610279610ef5565b005b34801561028757600080fd5b506102a2600480360381019061029d919061152b565b61109f565b6040516102b49695949392919061165d565b60405180910390f35b6102d760048036038101906102d29190611991565b6111cb565b6040516102e49190611a00565b60405180910390f35b3480156102f957600080fd5b50610314600480360381019061030f9190611a1b565b6114c9565b604051610321919061185e565b60405180910390f35b60006020528060005260406000206000915090508060000160009054906101000a900473ffffffffffffffffffffffffffffffffffffffff16908060010160009054906101000a900473ffffffffffffffffffffffffffffffffffffffff169080600201549080600301805461039f90611a77565b80601f01602080910402602001604051908101604052809291908181526020018280546103cb90611a77565b80156104185780601f106103ed57610100808354040283529160200191610418565b820191906000526020600020905b8154815290600101906020018083116103fb57829003601f168201915b5050505050908060040154908060050160009054906101000a900460ff16905086565b600360009054906101000a900473ffffffffffffffffffffffffffffffffffffffff1681565b80600073ffffffffffffffffffffffffffffffffffffffff1660008083815260200190815260200160002060000160009054906101000a900473ffffffffffffffffffffffffffffffffffffffff1673ffffffffffffffffffffffffffffffffffffffff1603610506576040517f08c379a00000000000000000000000000000000000000000000000000000000081526004016104fd90611af4565b60405180910390fd5b60008082815260200190815260200160002060050160009054906101000a900460ff1615610569576040517f08c379a000000000000000000000000000000000000000000000000000000000815260040161056090611b60565b60405180910390fd5b600080600084815260200190815260200160002090508060010160009054906101000a900473ffffffffffffffffffffffffffffffffffffffff1673ffffffffffffffffffffffffffffffffffffffff163373ffffffffffffffffffffffffffffffffffffffff1614610611576040517f08c379a000000000000000000000000000000000000000000000000000000000815260040161060890611bcc565b60405180910390fd5b60018160050160006101000a81548160ff0219169083151502179055506000606460045483600201546106449190611c1b565b61064e9190611c8c565b905060008183600201546106629190611cbd565b905060008360010160009054906101000a900473ffffffffffffffffffffffffffffffffffffffff1673ffffffffffffffffffffffffffffffffffffffff16826040516106ae90611d22565b60006040518083038185875af1925050503d80600081146106eb576040519150601f19603f3d011682016040523d82523d6000602084013e6106f0565b606091505b5050905080610734576040517f08c379a000000000000000000000000000000000000000000000000000000000815260040161072b90611d83565b60405180910390fd5b6000600360009054906101000a900473ffffffffffffffffffffffffffffffffffffffff1673ffffffffffffffffffffffffffffffffffffffff168460405161077c90611d22565b60006040518083038185875af1925050503d80600081146107b9576040519150601f19603f3d011682016040523d82523d6000602084013e6107be565b606091505b5050905080610802576040517f08c379a00000000000000000000000000000000000000000000000000000000081526004016107f990611def565b60405180910390fd5b82600160008760010160009054906101000a900473ffffffffffffffffffffffffffffffffffffffff1673ffffffffffffffffffffffffffffffffffffffff1673ffffffffffffffffffffffffffffffffffffffff16815260200190815260200160002060008282546108759190611e0f565b925050819055508460000160009054906101000a900473ffffffffffffffffffffffffffffffffffffffff1673ffffffffffffffffffffffffffffffffffffffff16877fa7b31f0f3731da4b3c94c7d84acb277ee788cda12f626e14c6baa74670dc5a07426040516108e7919061185e565b60405180910390a350505050505050565b80600073ffffffffffffffffffffffffffffffffffffffff1660008083815260200190815260200160002060000160009054906101000a900473ffffffffffffffffffffffffffffffffffffffff1673ffffffffffffffffffffffffffffffffffffffff160361099d576040517f08c379a000000000000000000000000000000000000000000000000000000000815260040161099490611af4565b60405180910390fd5b60008082815260200190815260200160002060050160009054906101000a900460ff1615610a00576040517f08c379a00000000000000000000000000000000000000000000000000000000081526004016109f790611b60565b60405180910390fd5b600080600084815260200190815260200160002090508060000160009054906101000a900473ffffffffffffffffffffffffffffffffffffffff1673ffffffffffffffffffffffffffffffffffffffff163373ffffffffffffffffffffffffffffffffffffffff1614610aa8576040517f08c379a0000000000000000000000000000000000000000000000000000000008152600401610a9f90611e8f565b60405180910390fd5b610e108160040154610aba9190611e0f565b4211610afb576040517f08c379a0000000000000000000000000000000000000000000000000000000008152600401610af290611efb565b60405180910390fd5b60018160050160006101000a81548160ff02191690831515021790555060008160000160009054906101000a900473ffffffffffffffffffffffffffffffffffffffff1673ffffffffffffffffffffffffffffffffffffffff168260020154604051610b6690611d22565b60006040518083038185875af1925050503d8060008114610ba3576040519150601f19603f3d011682016040523d82523d6000602084013e610ba8565b606091505b5050905080610bec576040517f08c379a0000000000000000000000000000000000000000000000000000000008152600401610be390611f67565b60405180910390fd5b8160000160009054906101000a900473ffffffffffffffffffffffffffffffffffffffff1673ffffffffffffffffffffffffffffffffffffffff16847fa7b31f0f3731da4b3c94c7d84acb277ee788cda12f626e14c6baa74670dc5a0742604051610c57919061185e565b60405180910390a350505050565b6005818051602081018201805184825260208301602085012081835280955050505050506000915090505481565b60045481565b600260009054906101000a900473ffffffffffffffffffffffffffffffffffffffff1681565b600260009054906101000a900473ffffffffffffffffffffffffffffffffffffffff1673ffffffffffffffffffffffffffffffffffffffff163373ffffffffffffffffffffffffffffffffffffffff1614610d4f576040517f08c379a0000000000000000000000000000000000000000000000000000000008152600401610d4690611fd3565b60405180910390fd5b8060058484604051610d62929190612023565b908152602001604051809103902081905550505050565b6000600160003373ffffffffffffffffffffffffffffffffffffffff1673ffffffffffffffffffffffffffffffffffffffff16815260200190815260200160002054905060008111610e00576040517f08c379a0000000000000000000000000000000000000000000000000000000008152600401610df790612088565b60405180910390fd5b6000600160003373ffffffffffffffffffffffffffffffffffffffff1673ffffffffffffffffffffffffffffffffffffffff1681526020019081526020016000208190555060003373ffffffffffffffffffffffffffffffffffffffff1682604051610e6b90611d22565b60006040518083038185875af1925050503d8060008114610ea8576040519150601f19603f3d011682016040523d82523d6000602084013e610ead565b606091505b5050905080610ef1576040517f08c379a0000000000000000000000000000000000000000000000000000000008152600401610ee8906120f4565b60405180910390fd5b5050565b600260009054906101000a900473ffffffffffffffffffffffffffffffffffffffff1673ffffffffffffffffffffffffffffffffffffffff163373ffffffffffffffffffffffffffffffffffffffff1614610f85576040517f08c379a0000000000000000000000000000000000000000000000000000000008152600401610f7c90611fd3565b60405180910390fd5b600047905060008111610fcd576040517f08c379a0000000000000000000000000000000000000000000000000000000008152600401610fc490612160565b60405180910390fd5b6000600260009054906101000a900473ffffffffffffffffffffffffffffffffffffffff1673ffffffffffffffffffffffffffffffffffffffff168260405161101590611d22565b60006040518083038185875af1925050503d8060008114611052576040519150601f19603f3d011682016040523d82523d6000602084013e611057565b606091505b505090508061109b576040517f08c379a0000000000000000000000000000000000000000000000000000000008152600401611092906120f4565b60405180910390fd5b5050565b60008060006060600080600080600089815260200190815260200160002090508060000160009054906101000a900473ffffffffffffffffffffffffffffffffffffffff168160010160009054906101000a900473ffffffffffffffffffffffffffffffffffffffff1682600201548360030184600401548560050160009054906101000a900460ff1682805461113590611a77565b80601f016020809104026020016040519081016040528092919081815260200182805461116190611a77565b80156111ae5780601f10611183576101008083540402835291602001916111ae565b820191906000526020600020905b81548152906001019060200180831161119157829003601f168201915b505050505092509650965096509650965096505091939550919395565b600080600585856040516111e0929190612023565b9081526020016040518091039020541161122f576040517f08c379a0000000000000000000000000000000000000000000000000000000008152600401611226906121cc565b60405180910390fd5b60058484604051611241929190612023565b908152602001604051809103902054341015611292576040517f08c379a000000000000000000000000000000000000000000000000000000000815260040161128990612238565b60405180910390fd5b60003383348787426040516020016112af969594939291906122c1565b6040516020818303038152906040528051906020012090506040518060c001604052803373ffffffffffffffffffffffffffffffffffffffff1681526020018473ffffffffffffffffffffffffffffffffffffffff16815260200134815260200186868080601f016020809104026020016040519081016040528093929190818152602001838380828437600081840152601f19601f8201169050808301925050505050505081526020014281526020016000151581525060008083815260200190815260200160002060008201518160000160006101000a81548173ffffffffffffffffffffffffffffffffffffffff021916908373ffffffffffffffffffffffffffffffffffffffff16021790555060208201518160010160006101000a81548173ffffffffffffffffffffffffffffffffffffffff021916908373ffffffffffffffffffffffffffffffffffffffff16021790555060408201518160020155606082015181600301908161142691906124ca565b506080820151816004015560a08201518160050160006101000a81548160ff0219169083151502179055509050508273ffffffffffffffffffffffffffffffffffffffff163373ffffffffffffffffffffffffffffffffffffffff16827f44cbbc7fb961794135f57c88d528ec66e19d2778920542828b70406d8d1f21df3489896040516114b6939291906125c9565b60405180910390a4809150509392505050565b60016020528060005260406000206000915090505481565b6000604051905090565b600080fd5b600080fd5b6000819050919050565b611508816114f5565b811461151357600080fd5b50565b600081359050611525816114ff565b92915050565b600060208284031215611541576115406114eb565b5b600061154f84828501611516565b91505092915050565b600073ffffffffffffffffffffffffffffffffffffffff82169050919050565b600061158382611558565b9050919050565b61159381611578565b82525050565b6000819050919050565b6115ac81611599565b82525050565b600081519050919050565b600082825260208201905092915050565b60005b838110156115ec5780820151818401526020810190506115d1565b60008484015250505050565b6000601f19601f8301169050919050565b6000611614826115b2565b61161e81856115bd565b935061162e8185602086016115ce565b611637816115f8565b840191505092915050565b60008115159050919050565b61165781611642565b82525050565b600060c082019050611672600083018961158a565b61167f602083018861158a565b61168c60408301876115a3565b818103606083015261169e8186611609565b90506116ad60808301856115a3565b6116ba60a083018461164e565b979650505050505050565b60006020820190506116da600083018461158a565b92915050565b600080fd5b600080fd5b7f4e487b7100000000000000000000000000000000000000000000000000000000600052604160045260246000fd5b611722826115f8565b810181811067ffffffffffffffff82111715611741576117406116ea565b5b80604052505050565b60006117546114e1565b90506117608282611719565b919050565b600067ffffffffffffffff8211156117805761177f6116ea565b5b611789826115f8565b9050602081019050919050565b82818337600083830152505050565b60006117b86117b384611765565b61174a565b9050828152602081018484840111156117d4576117d36116e5565b5b6117df848285611796565b509392505050565b600082601f8301126117fc576117fb6116e0565b5b813561180c8482602086016117a5565b91505092915050565b60006020828403121561182b5761182a6114eb565b5b600082013567ffffffffffffffff811115611849576118486114f0565b5b611855848285016117e7565b91505092915050565b600060208201905061187360008301846115a3565b92915050565b600080fd5b600080fd5b60008083601f840112611899576118986116e0565b5b8235905067ffffffffffffffff8111156118b6576118b5611879565b5b6020830191508360018202830111156118d2576118d161187e565b5b9250929050565b6118e281611599565b81146118ed57600080fd5b50565b6000813590506118ff816118d9565b92915050565b60008060006040848603121561191e5761191d6114eb565b5b600084013567ffffffffffffffff81111561193c5761193b6114f0565b5b61194886828701611883565b9350935050602061195b868287016118f0565b9150509250925092565b61196e81611578565b811461197957600080fd5b50565b60008135905061198b81611965565b92915050565b6000806000604084860312156119aa576119a96114eb565b5b600084013567ffffffffffffffff8111156119c8576119c76114f0565b5b6119d486828701611883565b935093505060206119e78682870161197c565b9150509250925092565b6119fa816114f5565b82525050565b6000602082019050611a1560008301846119f1565b92915050565b600060208284031215611a3157611a306114eb565b5b6000611a3f8482850161197c565b91505092915050565b7f4e487b7100000000000000000000000000000000000000000000000000000000600052602260045260246000fd5b60006002820490506001821680611a8f57607f821691505b602082108103611aa257611aa1611a48565b5b50919050565b7f5061796d656e74206e6f7420666f756e64000000000000000000000000000000600082015250565b6000611ade6011836115bd565b9150611ae982611aa8565b602082019050919050565b60006020820190508181036000830152611b0d81611ad1565b9050919050565b7f5061796d656e7420616c726561647920636f6d706c6574656400000000000000600082015250565b6000611b4a6019836115bd565b9150611b5582611b14565b602082019050919050565b60006020820190508181036000830152611b7981611b3d565b9050919050565b7f4f6e6c7920726563697069656e742063616e20636f6d706c6574650000000000600082015250565b6000611bb6601b836115bd565b9150611bc182611b80565b602082019050919050565b60006020820190508181036000830152611be581611ba9565b9050919050565b7f4e487b7100000000000000000000000000000000000000000000000000000000600052601160045260246000fd5b6000611c2682611599565b9150611c3183611599565b9250828202611c3f81611599565b91508282048414831517611c5657611c55611bec565b5b5092915050565b7f4e487b7100000000000000000000000000000000000000000000000000000000600052601260045260246000fd5b6000611c9782611599565b9150611ca283611599565b925082611cb257611cb1611c5d565b5b828204905092915050565b6000611cc882611599565b9150611cd383611599565b9250828203905081811115611ceb57611cea611bec565b5b92915050565b600081905092915050565b50565b6000611d0c600083611cf1565b9150611d1782611cfc565b600082019050919050565b6000611d2d82611cff565b9150819050919050565b7f5472616e7366657220746f20726563697069656e74206661696c656400000000600082015250565b6000611d6d601c836115bd565b9150611d7882611d37565b602082019050919050565b60006020820190508181036000830152611d9c81611d60565b9050919050565b7f5472616e7366657220666565206661696c656400000000000000000000000000600082015250565b6000611dd96013836115bd565b9150611de482611da3565b602082019050919050565b60006020820190508181036000830152611e0881611dcc565b9050919050565b6000611e1a82611599565b9150611e2583611599565b9250828201905080821115611e3d57611e3c611bec565b5b92915050565b7f4f6e6c792070617965722063616e20726566756e640000000000000000000000600082015250565b6000611e796015836115bd565b9150611e8482611e43565b602082019050919050565b60006020820190508181036000830152611ea881611e6c565b9050919050565b7f546f6f206561726c790000000000000000000000000000000000000000000000600082015250565b6000611ee56009836115bd565b9150611ef082611eaf565b602082019050919050565b60006020820190508181036000830152611f1481611ed8565b9050919050565b7f526566756e64206661696c656400000000000000000000000000000000000000600082015250565b6000611f51600d836115bd565b9150611f5c82611f1b565b602082019050919050565b60006020820190508181036000830152611f8081611f44565b9050919050565b7f4f6e6c79206f776e657200000000000000000000000000000000000000000000600082015250565b6000611fbd600a836115bd565b9150611fc882611f87565b602082019050919050565b60006020820190508181036000830152611fec81611fb0565b9050919050565b600081905092915050565b600061200a8385611ff3565b9350612017838584611796565b82840190509392505050565b6000612030828486611ffe565b91508190509392505050565b7f4e6f206561726e696e6773000000000000000000000000000000000000000000600082015250565b6000612072600b836115bd565b915061207d8261203c565b602082019050919050565b600060208201905081810360008301526120a181612065565b9050919050565b7f5769746864726177206661696c65640000000000000000000000000000000000600082015250565b60006120de600f836115bd565b91506120e9826120a8565b602082019050919050565b6000602082019050818103600083015261210d816120d1565b9050919050565b7f4e6f2062616c616e636500000000000000000000000000000000000000000000600082015250565b600061214a600a836115bd565b915061215582612114565b602082019050919050565b600060208201905081810360008301526121798161213d565b9050919050565b7f496e76616c696420736572766963652074797065000000000000000000000000600082015250565b60006121b66014836115bd565b91506121c182612180565b602082019050919050565b600060208201905081810360008301526121e5816121a9565b9050919050565b7f496e73756666696369656e74207061796d656e74000000000000000000000000600082015250565b60006122226014836115bd565b915061222d826121ec565b602082019050919050565b6000602082019050818103600083015261225181612215565b9050919050565b60008160601b9050919050565b600061227082612258565b9050919050565b600061228282612265565b9050919050565b61229a61229582611578565b612277565b82525050565b6000819050919050565b6122bb6122b682611599565b6122a0565b82525050565b60006122cd8289612289565b6014820191506122dd8288612289565b6014820191506122ed82876122aa565b6020820191506122fe828587611ffe565b915061230a82846122aa565b602082019150819050979650505050505050565b60008190508160005260206000209050919050565b60006020601f8301049050919050565b600082821b905092915050565b6000600883026123807fffffffffffffffffffffffffffffffffffffffffffffffffffffffffffffffff82612343565b61238a8683612343565b95508019841693508086168417925050509392505050565b6000819050919050565b60006123c76123c26123bd84611599565b6123a2565b611599565b9050919050565b6000819050919050565b6123e1836123ac565b6123f56123ed826123ce565b848454612350565b825550505050565b600090565b61240a6123fd565b6124158184846123d8565b505050565b5b818110156124395761242e600082612402565b60018101905061241b565b5050565b601f82111561247e5761244f8161231e565b61245884612333565b81016020851015612467578190505b61247b61247385612333565b83018261241a565b50505b505050565b600082821c905092915050565b60006124a160001984600802612483565b1980831691505092915050565b60006124ba8383612490565b9150826002028217905092915050565b6124d3826115b2565b67ffffffffffffffff8111156124ec576124eb6116ea565b5b6124f68254611a77565b61250182828561243d565b600060209050601f8311600181146125345760008415612522578287015190505b61252c85826124ae565b865550612594565b601f1984166125428661231e565b60005b8281101561256a57848901518255600182019150602085019450602081019050612545565b868310156125875784890151612583601f891682612490565b8355505b6001600288020188555050505b505050505050565b60006125a883856115bd565b93506125b5838584611796565b6125be836115f8565b840190509392505050565b60006040820190506125de60008301866115a3565b81810360208301526125f181848661259c565b905094935050505056fea2646970667358221220a9b39f8b9507e72a79e69525df83ff83d94521321a01dd9c14660b36d7b0b4bc64736f6c63430008130033",
  "linkReferences": {},
  "deployedLinkReferences": {}
}